:1000000000800020BD0100007918000031180000B8
:1000100031180000311800003118000031180000BC
:100020003118000031180000311800007918000064
:1000300079180000311800001D2F0000212F00004A
:10004000791800007918000079180000791800006C
:10005000791800007918000079180000791800005C
:10006000791800007918000079180000791800004C
:10007000791800007918000079180000791800003C
:10008000791800007918000079180000791800002C
:10009000791800007918000079180000791800001C
:1000A000791800007918000079180000791800000C
:1000B00079180000791800007918000079180000FC
:1000C00079180000791800007918000079180000EC
:1000D00079180000791800007918000079180000DC
:1000E00079180000791800007918000079180000CC
:1000F00079180000791800007918000079180000BC
:1001000079180000791800007918000079180000AB
:10011000791800007918000079180000791800009B
:10012000791800007918000079180000791800008B
:10013000791800007918000079180000791800007B
:10014000791800007918000079180000791800006B
:100150000D30000021300000353000004930000033
:10016000791800006D1F0000791800007918000050
:10017000791800007918000079180000791800003B
:10018000791800007918000079180000791800002B
:10019000791800007918000079180000791800001B
:1001A000791800007918000079180000791800000B
:1001B000791800007918000079180000564B4CF2AD
:1001C000205210B51A804DF628121A8000BF00BFC9
:1001D00001F056FB514B4FF010621A60504A9A6082
:1001E000504ADA60504A136813F4807304D14F49BF
:1001F0000B604FF4A85313604D4B1A78110703D5C9
:100200001A7842F008021A704A4B4B492A221A7097
:100210004A4A4B4B8B4204D252F8040F43F8040B6A
:10022000F8E7484B484900228B4202D243F8042B9E
:10023000FAE74649464A002352F8230041F82300D2
:1002400001336F2BF8D1434B434A802103F8011B44
:100250009342FBD1414B3D4A1A60414B8A221A70AE
:10026000A3F5805324225A70A0221A709A7992071B
:10027000FCD59A79D406FCD43A4A937903F00C035E
:10028000082B384BF9D103221A7140225A719A79FE
:100290009006FCD5334A9179324B4906FBD5324A58
:1002A000324911600221516020221A709A7902F0BD
:1002B0000C020C2AFAD12E4B2E4A1A602E4B2F4AD2
:1002C0001A6000225A60072243F8042C2C4AC3F813
:1002D0000C2D62B601F0DAFC144B1B68DA0705D569
:1002E000284801F033FB284B284A1A60284B1B781A
:1002F0005B0609D5244C254B22689A4204D121483B
:1003000001F024FB0023236001F0C0FA02F09AFF01
:1003100002F0A4FEFEE700BF0E200540308004403E
:10032000823F04000100002B10D0034014D0034092
:1003300002D0074000E007408091FF1FF035000029
:10034000308CFF1F8091FF1F1496FF1F0082FF1F3C
:100350000000000000E400E05FE400E008ED00E0E1
:100360000050064000400640448004400000030165
:1003700004800440C010050014E000E0FF76010096
:100380000000202011ECB4621CE00340A5C3945A85
:1003900000F00740FFFFFFFFFFFFFFFFFFFFFFFF32
:1003A000FFFFFFFFFFFFFFFFFFFFFFFFFFFFFFFF5D
:1003B000FFFFFFFFFFFFFFFFFFFFFFFFFFFFFFFF4D
:1003C000FFFFFFFFFFFFFFFFFFFFFFFFFFFFFFFF3D
:1003D000FFFFFFFFFFFFFFFFFFFFFFFFFFFFFFFF2D
:1003E000FFFFFFFFFFFFFFFFFFFFFFFFFFFFFFFF1D
:1003F000FFFFFFFFFFFFFFFFFFFFFFFFFFFFFFFF0D
:10040000FFFFFFFFFFFFFFFFFFFFFFFFDEF9FFFF23
:1004100010B5054C237833B9044B13B10448AFF33E
:1004200000800123237010BD8091FF1F0000000099
:10043000EC350000084B10B51BB108490848AFF374
:1004400000800848036803B910BD074B002BFBD0A0
:10045000BDE81040184700BF000000008491FF1F56
:10046000EC3500008091FF1F0000000070B4054BC8
:10047000054D064E064C187031706A54227070BCDF
:10048000704700BF5E8CFF1F4492FF1F7492FF1FD6
:10049000568CFF1F08B50121072001F069FBFA20E7
:1004A00001F0A6FB0021072001F062FB002001F013
:1004B00023F9194B01211860062001F059FBFA209D
:1004C00001F096FB0021062001F052FB002001F014
:1004D00013F9124B01211860092001F049FBFA20A1
:1004E00001F086FB0021092001F042FB012001F010
:1004F00003F90B4B01211860082001F039FBFA20A9
:1005000001F076FB0021082001F032FB012001F010
:10051000F3F8044B186008BDA091FF1F8892FF1FDD
:10052000A491FF1F8C92FF1FF8B50121072001F055
:1005300033FB0121062001F02FFB0121142001F0E3
:100540002BFB0121092001F027FB0121082001F0EC
:1005500023FB0121152001F01FFB0221084601F0B9
:100560001BFB0221032001F017FB0221042001F0F4
:1005700013FB0C2001F08CF81F4B204A20481A6016
:10058000172100F00FFE1E481E4D1F4F202100F0C6
:1005900027FE1E481E4A046840F2EE2613783BB13F
:1005A0002B78DB0704D5036839685B1A0E2B06D855
:1005B000036811781B1BE1B1B3F5FA6FEED9002285
:1005C0001146144800F06AFE05220021114800F08F
:1005D00079FE00210F4800F09BFEFF21142001F05E
:1005E000C9F9FF21152001F0C5F9BDE8F840FFF772
:1005F00051BFB342D2D9E2E79494FF1F6D040000CB
:10060000A092FF1FA894FF1F1096FF1F3C93FF1F8F
:100610003094FF1FB891FF1F10B5112082B0214CFC
:1006200001F0A6FB2368204A9842106032DC02DA0F
:100630001E4B1A78CAB9122001F09AFB23681C4A93
:10064000984210601EDC0EDA1A4B1A785AB11A4A18
:100650001A49106808601A4A00211970136801933A
:10066000184B019A1A6002B010BD174A174910685A
:100670000860134A0021197013680093144B009A04
:100680001A60D8E70B4B1A78002AECD101221A70B5
:1006900002B010BD054B1A78002ACCD101221A7085
:1006A000C9E700BF588CFF1F2892FF1F8492FF1FCD
:1006B000B491FF1F8592FF1F3C92FF1F8092FF1F86
:1006C0003C93FF1FB091FF1F3892FF1F7C92FF1FCA
:1006D0002C92FF1FF0B5344C237883B01BB1334DFF
:1006E0002B78002B35D02378002B30D12F4C23785A
:1006F000002B2CD02E4B2F4D1B682B60002B2E4A2D
:100700002E492F48B8BF1F33C3F34713137009781E
:10071000137800781A06090401F4FE0102F0FE4382
:100720000B43013843F43043000243F00B0300F461
:100730007060184302F018F9224A29681160224BB0
:10074000002222701B680193204B019A1A6003B0AB
:10075000F0BD1D4B1D4A1B680093009B12689B1A3D
:10076000642BC0D9144B134A144916681448104A14
:10077000007816607F271F7009781B7809041A0615
:1007800001F4FE0102F0FE430B43013843F4304311
:10079000000243F00B0300F47060184302F0E4F829
:1007A00001232B709FE700BF1C92FF1F3092FF1F99
:1007B0006C92FF1F3C92FF1F2492FF1F5C8CFF1F57
:1007C0005F8CFF1F8092FF1F3C93FF1F3492FF1F1F
:1007D00010B5032084B001F0D1F940B91F4C204975
:1007E00023680093009B0A689B1AFA2B21D80420E7
:1007F00001F0C4F9D8B9194C194923680293029B36
:100800000A689B1AFA2B12D9164B1A78013AD2B2FF
:100810001A701A781F2A00D918701B781248134AC8
:10082000C35C5B01136023680393039B0B6004B0FC
:1008300010BD0C4B1A780132D2B21A701A781F2AE6
:1008400001D91F221A701B780748084AC35C5B0154
:10085000136023680193019B0B60C8E73C93FF1F63
:100860001892FF1F5C8CFF1F4492FF1F8092FF1F96
:1008700030B5214B1B7883B0002B2ED11F4A204965
:10088000204B1B78FBB1204B20481B68002BB8BFC6
:100890000F33C3F307131370037801330B701C4D30
:1008A0001C4C2B680093009B20681B1A282B08D92E
:1008B00012780978184800F097FC2B680193019B87
:1008C000236003B030BD154B15481B7800785B00E2
:1008D000DBB2013013700870E1E7124B074A1B6866
:1008E00011480749002BB8BF0F33C3F30713137028
:1008F000037801330B70C3E78492FF1F9892FF1FA8
:100900005D8CFF1F8592FF1F3C92FF1F5C8CFF1FB9
:100910003C93FF1F7892FF1FA092FF1F568CFF1F72
:100920007492FF1F3892FF1F9192FF1F2DE9F04F25
:100930005E4E5F4D33685F48DFF894A1DFF894B1F5
:10094000DFF894E15C4C5D495D4F85B00393039BF8
:100950002A785C4BD2B20260D0F800C083FB0C282E
:100960004FEAEC72C2EBA80202EB8202ACEB42024D
:10097000CAF800200268DFF8648183FB029CD2176A
:10098000C2EBAC020260D0F800C0DFF8549183FBE8
:100990000C204FEAEC72C2EBA00000EB8000ACEB45
:1009A0004000CBF800002A78474D1EF802E0642092
:1009B0003F2210FB0E2284FB02041444D217C2EB28
:1009C000A4120A60086883FB0024C217C2EBA402C9
:1009D00002EB8202A0EB42023A600A6883FB02400B
:1009E000D217C2EBA0020A60086883FB0024C2177A
:1009F000C2EBA40202EB8202A0EB4202C8F8002084
:100A00000A6883FB0203D217C2EBA30300240B6026
:100A1000D1F800E000942846214663230722C9F854
:100A200000E000F09BFC2146284600946323062248
:100A300000F094FCDBF80030009421462846DBB23D
:100A4000052200F06DFCDAF80030009421462846BB
:100A5000DBB2042200F064FC2146284600942D23DA
:100A6000032200F07BFCD9F8003000942146284690
:100A7000DBB2022200F054FCD8F80030009421468A
:100A80002846DBB2012200F04BFC3B680094224672
:100A9000DBB22846214600F043FC33680293029AF9
:100AA0000A4B1A6005B0BDE8F08F00BF3C93FF1FF2
:100AB0005C8CFF1F7092FF1F090402816892FF1F68
:100AC000AC91FF1F67666666B891FF1F2092FF1FFB
:100AD0006492FF1F9C92FF1F4492FF1F9492FF1F7E
:100AE0009C91FF1F2DE9F04F002087B001F0A4FF7B
:100AF000022001F043F8BF4ADFF83C93DFF83C8363
:100B0000DFF83CA3B0FA80F35B090020137000F01B
:100B1000F3FDC9F80000012000F0EEFDC8F8000068
:100B2000FFF77AFDFFF7D6FDFFF752FEB24A9AF8BB
:100B3000003012789A4200F08781B04CB04DB14B32
:100B40001B781BB1B04B1B68103B2360002000F0EA
:100B5000D3FD2B684038984200F38380AB4F0020D0
:100B600000F0CAFD2B6840309842C0F2C4800120DA
:100B700000F0C2FD2368403898424FDCA44E0120AB
:100B800000F0BAFD236840309842C0F290803B7874
:100B90004BB1A04CA04D23680293029B2A689B1A7C
:100BA000322B00F2CE803378002B30D0994C9A4D06
:100BB00023680493049B2A689B1A322B27D9D8F800
:100BC0000030964E964F9AF80000002BB8BF1F33A6
:100BD000C3F3471333703A78337812041B0602F4D8
:100BE000FE0203F0FE4313430138000243F4304396
:100BF00043F00B0300F47060184301F0B5FE3A783F
:100C00008849307823680593059B88542B60FFF74B
:100C10002FFEFFF78BFE07B0BDE8F08F824BD8F8B0
:100C200000201B687A4E9A42A9DD3378002BA6D1AA
:100C30000121082000F09CFF704D012000F05CFDB8
:100C400023682038984203DD3378002B00F0BB8006
:100C50000021082000F08CFFFF21152000F08AFE03
:100C600095E7724BD9F800201B68684F9A427FF7CE
:100C700076AF3B78002B7FF472AF0121062000F0A5
:100C800077FF5F4E002000F037FD2B682038984238
:100C900004DD3B7803F0FF0B002B7ED00021062003
:100CA00000F066FFFF21142000F064FE5FE7564B62
:100CB000D8F800201B689A42BFF669AF3378002B42
:100CC0007FF465AF0121092000F052FF4B4D012058
:100CD00000F012FD23682030984203DA3378002BAD
:100CE00000F0EE800021092000F042FFFF211520D6
:100CF00000F040FE4BE74E4BD9F800201B689A42AB
:100D0000BFF635AF3B78002B7FF431AF01210720D0
:100D100000F02EFF3A4E002000F0EEFC2B68203051
:100D2000984205DA3B7803F0FF0B002B00F0B2800D
:100D30000021072000F01CFFFF21142000F01AFE04
:100D400015E7D9F800303B4FDFF8F8909AF800002B
:100D5000002BB8BF1F33C3F347133B7099F8002033
:100D60003B7812041B0602F4FE0203F0FE43134319
:100D7000013843F43043000243F00B0300F4706089
:100D8000184301F0F1FD99F80020387823680393A7
:100D90002449039B88542B6005E7584600F0ACFCBF
:100DA000336898427FF76EAF5846D6F800B000F02F
:100DB000A3FC0BF1FF0B8345FFF664AFA8211420C1
:100DC00000F0D8FD5EE7012000F096FC2B68984209
:100DD0007FF733AF0120D5F800B000F08DFC0BF1A8
:100DE000FF0B8345FFF629AFA821152000F0C2FDB7
:100DF00023E700BF1C92FF1F5E8CFF1F8092FF1F26
:100E00007C92FF1F3092FF1FA491FF1F8492FF1F4F
:100E10008592FF1F3C93FF1F4092FF1F2492FF1FEC
:100E20005C8CFF1F4492FF1F8C92FF1F8892FF1F54
:100E3000A091FF1F9092FF1F3892FF1F3C92FF1F4F
:100E40005F8CFF1F9192FF1F284C294A2368009353
:100E5000009B12689B1AB3F5FA7F19D9254B264AD5
:100E60001B78264DD35C5B012B602368244A0193D9
:100E7000019B12689B1AB3F5FA7F07D9214B1E4AD2
:100E80001B78214CD35C5B01236058E61E4C56E670
:100E90001A4DEAE7584600F02FFC33689842BFF637
:100EA0003AAF5846D6F800B000F026FCABF1FF0B85
:100EB00083453FF730AFA821142000F05BFD2AE7FF
:100EC000012000F019FC2B689842BFF600AF01200A
:100ED000D5F800B000F010FCABF1FF0B83453FF7F5
:100EE000F6AEA821152000F045FDF0E63C93FF1F6B
:100EF0002C92FF1F9192FF1F4492FF1F7C92FF1FB5
:100F0000B091FF1F5C8CFF1F8092FF1FF0B58BB06C
:100F1000012300930B220A230C21184800F03EFA0B
:100F2000174B18491A680292DDF808E01A68039214
:100F3000039E1A680492049C1A680592059A186820
:100F40000690069F18680790079D186808900898F3
:100F50001B6809930C4BC1F800E01E600B490C4B59
:100F60000C601A600B4E0C4C0C490D4B099A376003
:100F7000256008601A600BB0F0BD00BFB891FF1F7C
:100F80003C93FF1F4092FF1F2C92FF1FB091FF1F49
:100F9000A891FF1F3492FF1F1892FF1F2092FF1F7E
:100FA0007892FF1F10B5044602F00EF8204610BDDF
:100FB00010B50B4B0B4918780B4B51F830100B4AFE
:100FC00019600B4C012319462370137000F0E4FDE7
:100FD000084A09490948BDE8104001F0ABBF00BF0D
:100FE000608CFF1F2C340000A492FF1F3493FF1F5E
:100FF000B092FF1FFF76010089100000A892FF1F2A
:10100000F0B472B61C4C1D4923681D4D1D4A2F6853
:1010100043F0807323600B6843F001030B600023EF
:1010200011683B7013685B1AB3F5C07FFAD3154C97
:1010300001254FF4C076284214BF012300233B70E2
:1010400006F5C07223685B1A9A42FBD86D00B2F5B0
:10105000586FEDB201D01646EDE7012302F1604270
:1010600002F521723B7006F5906613685B1A9E428A
:10107000FBD862B6F0BC7047FCED00E0001000E069
:10108000A492FF1F041000E02DE9F843224DDFF881
:1010900098802C88214F224E4FF07D09002C2DD1B5
:1010A000B9F1220F28D9396896F800E00B78A9F138
:1010B000230923EA0E031FFA89F90B700B204FF462
:1010C00080721346013BFDD1013810F0FF00F8D1CA
:1010D0000A784EEA02024FF4C0730A70013BFDD158
:1010E000FFF78EFF0F4B0C4A1B880134A4B2A342BA
:1010F0002C80D3D200231380BDE8F883B9F10A0F06
:10110000FAD9631EA9F10B0918F803001FFA89F92F
:10111000FFF776FFE6E700BFB292FF1FA492FF1F22
:101120003493FF1F628CFF1FB492FF1F38B50A4B28
:101130001B7804460D465BB1631E7F2B07D8074A18
:1011400007491088CD54844238BF0446148038BD06
:10115000FFF72EFFF0E700BFB092FF1F628CFF1F6A
:10116000B492FF1F002808B50DDD0B4B0B4A1B780E
:101170007F28D4BF80B28020108003B108BDBDE8B5
:101180000840FFF715BF064801F01EFF0249034A59
:1011900000230B70138008BDB092FF1F628CFF1FED
:1011A000A892FF1F38B50A4D2B7813B9094B197057
:1011B00038BD09480C4601F007FF064A074914707C
:1011C00000232B700B80BDE83840FFF7F1BE00BF55
:1011D000B092FF1F608CFF1FA892FF1F628CFF1F41
:1011E0000846FFF7BFBF00BF08461146FFF79EBF86
:1011F00030B4054B054A0649802400251C711D604A
:10120000184630BC02F012B8A892FF1F308CFF1FA6
:10121000A50F000030B5054683B0C06D8DF80720DE
:101220004200002A8DF806304FEA410427DD013ADA
:101230002A446B1E002003F8010F9342FBD12C447B
:101240009DF807009DF80620607005F81120002128
:1012500095F858005C1C00F08BFC14F8012D95F8F3
:10126000541095F8500000F09DFCA542F5D195F87A
:101270005800012103B0BDE8304000F079BC2C4497
:101280009DF807209DF80630627005F811300021A6
:1012900095F8580000F06CFCE9E700BF0B1E0ADB74
:1012A00010B4C46DA34205DA32B901230C2210BC7C
:1012B000FFF7B0BF10BC704700230C2210BCFFF733
:1012C000A9BF00BF30B40C1E04DBC36D9C4201DA21
:1012D0000F2A01D930BC7047D3B230BC0A22FFF7C5
:1012E00099BF00BF2DE9F04100EBC105002406467F
:1012F0000F460F35A046013405F8018FE2B20023F6
:1013000039463046FFF786FF082CF4D1BDE8F0815E
:101310000B1E04DBC26D934201DAFFF7E3BF704797
:1013200070B400299DF80C5014DBC46DA14211DA91
:10133000072A0FD80F2B0DD8074ECC00F35C0DB148
:1013400043F080030444144401322374D2B270BCCD
:10135000FFF760BF70BC70478033000070B4002995
:101360009DF80C5016DBC46DA14213DA072A11D880
:1013700013F0800F18BF2023074ECC00F35C0DB193
:1013800043F080030444144401322374D2B270BC8D
:10139000FFF740BF70BC70478033000070B5049CFD
:1013A0004265661E0546082E28BF082483650E4642
:1013B0002965C465C8B2012100F0EEFB95F8540020
:1013C000012100F0E9FB95F85800012100F0E4FB51
:1013D000012195F8580000F0CBFB2E6505F10F03B5
:1013E00005F14F01002203F8012F9942FBD1EB6D6B
:1013F000002B22DD00240EE0EB6DA3422EDC002347
:10140000092221462846FFF705FFEB6DA34216DCB3
:101410000134A34211DD00230F2221462846FFF7A5
:10142000F9FE002CE8DA0023214609222846FFF7BE
:10143000F1FEEB6D0134A342EDDC284670BD214680
:101440002846FFF74FFFEB6DA342E1DD00230C229E
:1014500021462846FFF7DEFEEB6DD9E707230B2276
:1014600021462846FFF7D6FEC9E700BF374A38496C
:1014700013681B06FCD40B6813F08003F8D172B616
:1014800034490A78002A5FD0334A3448F0B4344CE7
:10149000176806682568D4680C303E44143200682A
:1014A0001268304F35442C4420440244C2F34E02AB
:1014B0002D4E2E482E4D2F4C42F400423A60376894
:1014C00006682D682C4A24680C303E440068126877
:1014D0002A4F35442C4420440244C2F34E02284E85
:1014E0002848294D294C42F400423A603768066882
:1014F0002D68274A24680C303E4400681268254F46
:1015000035442C4420440244C2F34E02224E234868
:10151000234D244C42F400423A60376806682D6837
:10152000214A24680C303E440068126835442C443B
:1015300020440244C2F34E021C4842F400420260BE
:101540000B7062B6F0BC704762B6704724B00340BF
:1015500024B00B403693FF1F38B003403CB003402B
:1015600040B003402CB0034058B003405CB003408F
:1015700060B0034064B003406CB0034030B003403F
:1015800038B00B403CB00B4040B00B4044B00B4077
:101590004CB00B402CB00B4058B00B405CB00B4033
:1015A00060B00B4064B00B406CB00B4030B00B40EF
:1015B00030B42948294A2A4B2A4D6024E12104707D
:1015C00011701B78284C082B30D00A2B274828494B
:1015D00037D00C2B0CBF35223D2212232A6023600A
:1015E00002600B60234B24491B78244ABBB10123C2
:1015F0000B601360224B23491B78234A012B26D909
:10160000042B0FD9082B1ED9102B94BF86238723B8
:101610000B6013601D4B01221A7030BC70470B60C9
:101620001360E7E784230B601360F3E700F58E2077
:101630000F490830012213232A60236002600B60E7
:10164000D0E73922F7E785230B601360E2E78023B8
:101650000B601360DEE700BF004007400140074019
:10166000648CFF1F08B003400CB0034008B00B406F
:101670000CB00B403993FF1F20B0034020B00B404B
:10168000658CFF1F24B0034024B00B403693FF1F2E
:101690000C2830B417D91023984228BF18461C468E
:1016A000104A114D1178181A8C42287018D00F4921
:1016B00013700B7823B10E490E4A00230B601360A0
:1016C00030BCFFF775BF0A2802D90C231C46E7E798
:1016D000082802D90A231C46E2E708231C46DFE754
:1016E00030BC7047648CFF1F3593FF1F3693FF1F7C
:1016F00024B0034024B00B4028282FD8334B2DE9C9
:10170000F0411E5CFF2E2BD0314B1B78002B2AD1D1
:1017100032062CD472B62F4D2F4C2F460123266053
:101720002B7062B672B623681B060CD43B781BB9CB
:10173000F4E72B78002BF1D062B601F097FC72B67B
:1017400023681806F5D5254B1B6800222A7062B65F
:10175000234A107843FA00F0BDE8F081002070477A
:101760000020BDE8F081FFF781FE3206D2D572B6C7
:101770001C4DDFF87C801C4C06F04007FFB206F0E1
:101780003F06D8F80030DFB123F01003C8F800306E
:1017900001232660134A2B7062B672B623681906BD
:1017A0000CD413781BB9ECE72B78002BE9D062B688
:1017B00001F05CFC72B623681B06F5D50B4BC3E742
:1017C00043F01003C8F80030E2E700BF0034000027
:1017D0003693FF1F3893FF1F00B0034010B0034043
:1017E0003593FF1F3793FF1F00B00B4010B00B4025
:1017F0000CB00B400A4A0B49136843F48053136042
:101800000B7843B9084BC0221A70084B80F30C00C8
:1018100000B218807047044B80221A70F5E700BFB1
:101820002C8004403993FF1F21C00C4000C00C40A5
:1018300008B5104C08E0236859050DD423681A0533
:101840000FD42368DB0411D423685803F3D500F0C8
:101850008DFB23685905F1D500F00EF823681A05B1
:10186000EFD500F009F82368DB04EDD500F004F8AB
:10187000EAE700BF3480044008B5FFF7D9FF00BF96
:10188000014B10221A80704700200540704700BFAE
:1018900010B40F4B53F8302092F880422CB1012342
:1018A00069B182F8803010BC704703EBC0035B68FD
:1018B0001A6841B922F002021A6010BC704782F81F
:1018C000003110BC704742F003021A6010BC704730
:1018D0002C3400001C4A02EBC00301295B6811D0C4
:1018E00004291BD052F83000002280F8802229B150
:1018F000022920D0032922D01A6070474FF4807249
:101900001A60704752F830004FF4A27280F88012CB
:101910001A601A6822F020021A60704752F83010DC
:101920004FF4A272012081F880021A601A6842F016
:1019300020021A60704740F203121A6070474FF499
:1019400081721A60704700BF2C34000030B4054B20
:10195000054D064C002210211A602A602060196093
:1019600030BC704714D0034004D0034000D0034083
:10197000704700BF282838B52ED0002904464FDD17
:101980005F4B1B78012505FA03F28A4202D8212811
:1019900037D938BD0338C2B2012A3AD9202C4AD0EF
:1019A000192C48D0574A126802FB011222FA03F39D
:1019B0001D2800F29B80DFE800F0928B847D9999CE
:1019C000766F99999999999999999968615A5399C2
:1019D0004C99999999999945494B1B780B2B08D9A2
:1019E0000C2B1CBF0C3B19410846BDE83840FFF7E3
:1019F00001BFC3F10C0399400846BDE83840FFF72A
:101A0000F9BE2946FFF744FF2946BDE83840FFF7F5
:101A100061BF3D4A126802FB011222FA03F3C7E7D5
:101A20002128B6D80021FFF733FF20460121BDE869
:101A30003840FFF74FBF354A126802FB011222FA05
:101A400003F3B5E73249334A0B604FF45173136027
:101A500038BD3149314A0B604FF45173136038BDC2
:101A60002F49304A0B6040F24443136038BD2E4981
:101A70002E4A0B6040F24443136038BD2C492D4A76
:101A80000B6040F24443136038BD2B492B4A0B6076
:101A900040F24443136038BD29492A4A0B6040F2A2
:101AA0004443136038BD2849284A0B6040F2444340
:101AB000136038BD2649274A0B6040F24443136047
:101AC00038BD2549254A0B6040F24443136038BDB8
:101AD0002349244A0B604FF45173136038BD2249E7
:101AE000224A0B604FF45173136038BD212C3FF62E
:101AF00050AF7F29D4BF00210121204693E700BFCA
:101B0000668CFF1F088003400890034008800B404C
:101B100010800B4048A0044018800B404CA00440AB
:101B20001880034008B004401080034004B0044013
:101B30004080034018C004403880034014C0044073
:101B40002880034010B00440208003400CB00440C3
:101B50003080034010C00440488003401CC0044053
:101B6000189003403490044010900340309004409B
:101B7000212801D8FFF78CBE704700BF212806D866
:101B8000044B53F8303093F80002C0B27047002085
:101B9000704700BF2C340000212801D8FFF79ABEFF
:101BA000704700BF2DE9F04107460E4690460824D5
:101BB000802505E0212E4FEA55050CD9013C14D0B3
:101BC000212FF7D808EA05013846FFF761FE212EDC
:101BD0004FEA5505F2D801213046FFF759FE0021A2
:101BE0003046FFF755FE013CEAD1BDE8F08100BF69
:101BF0002DE9F843054672B6204F214B214A1B6858
:101C00003C68126862B6520102D5322B88BF01349B
:101C100095B3C3F5BB331C4EDFF86490DFF86480E6
:101C2000FF334FF47A72A6FB031302FB04F404EBB8
:101C3000931472B6D9F800103A68D8F800E062B68A
:101C4000C1F5BB33FF33A6FB03031EF0806FC4EB6B
:101C500093134FF47A7002D0322988BF013200FB0F
:101C60000233B3F57A7F04D3013D05D004F57A74CD
:101C7000DFE701F0FBF9DCE7BDE8F8833C93FF1FE9
:101C800018E000E004ED00E0ABAAAAAAF8B52E4BDC
:101C90002E49DFF8D4E0DFF8D4C02D4E2D4D2E4C68
:101CA0002E4A2F4F4FF4000018604FF080701860DC
:101CB0004FF0007018604FF0806018604FF00060C7
:101CC00018600020086028234BF6FF71CCF8001044
:101CD000CEF80030336013602B6023603B60B3624A
:101CE0009362092245F8242CC4F8D80F05F57F65C6
:101CF000C7F8D41F07F5FF2707F5FA67C6F8F83FBE
:101D00002B6006F5FF26C4F8D42F05F5FD2504F554
:101D1000FF24386006F2F4761248316005F5FF655D
:101D200004F5FD642B6023600260FFF741FCFFF7C0
:101D30001FFE1420FFF75CFF00F052FD4FF48C7083
:101D4000BDE8F840FFF754BF08E100E0048003401D
:101D500014800340248003402C8003401C800340F7
:101D60003480034000800B400C8003400880034017
:101D700021282FD8184B195CFF292BD0174B184A54
:101D8000DFF870C003EBC000F0B54368DFF868E02F
:101D9000144F154D154E00241C60DEF80030012054
:101DA00043F020038840CEF8003014604FF4A07355
:101DB00038602E60C2F800C0013BFDD113689B055E
:101DC000FCD42023013BFDD1094B09B233F81100AB
:101DD00080B2F0BD002070473C3500002C3400007C
:101DE0000050044008500440045004400000020326
:101DF0000051044080014A0038800440431E042BF7
:101E000014D872B60A4951F8230068B170B4094C6D
:101E1000058834F81320466841F82360521B24F8E3
:101E2000132062B670BC704762B6704700207047DE
:101E30009C93FF1FD094FF1F013804280BD872B663
:101E4000074B53F8203043B100205B680130002B72
:101E5000FBD162B67047002070471846F9E700BF13
:101E6000F493FF1FF0B472B61A491B4E012311F808
:101E7000014B194F9A00240742F0010505D556F889
:101E8000324064B156F83520BAB10133062BEED199
:101E900062B6124B00221A70F0BC00F01BBD0F4C52
:101EA0000F4D217807EB431308300139586021703A
:101EB00047F8325062B6F0BC7047084A09491378B7
:101EC00007EBC5040830013B6060137047F835101C
:101ED00062B6F0E7603500000080FF1F2594FF1F09
:101EE00088004000C8004000431E042B1DD81B4A38
:101EF000400140F0100030B4104472B6184CE25C5F
:101F0000032A1BD8DFE802F00212151703220D88FE
:101F1000E25410F0080F14BFC823882343EA054396
:101F200008314160036062B630BC7047083002225D
:101F3000EDE70522EBE708300422E8E7094A52F80A
:101F4000230038B1084A52F82300416042F82310B8
:101F500062B6E9E742F82310034AF7E70080FF1F63
:101F60003494FF1FF493FF1F0894FF1F2DE9F04FD7
:101F7000DFF818B3DFF818A387B044E0AE4F4FEA9C
:101F8000930807EBC809013ED9F8042003F00803C1
:101F9000F6B2A2F1080003F0FF04002B40F0058127
:101FA00057F838301B0C99B222F8081C002B00F0AF
:101FB000F380A24B22F8064C42F8044C53F826203A
:101FC000002A00F06E819E4D55F8263058609D4CD9
:101FD00045F8260034F81630194424F8161000F09D
:101FE00059FC002800F05681974A984B19F0080FC9
:101FF00000F1080018BF1346C9F8040047F838304C
:1020000008238BF800309BF80040E4B261071DD52F
:102010008F4B1B78BBB18F490A7802F0FF032AB1BE
:10202000013BDBB20B70002B00F0B4838A490A78C5
:1020300002F0FF032AB1013BDBB20B70002B00F072
:10204000F88000F0DFFC04238BF8003004F0080374
:1020500003F0FF02002B00F0D5809AF80030DBB2CD
:102060001E098BD19C08DFF8D09159F8342009EB78
:10207000C401C2F38302013A49680C2A7DD8DFE823
:1020800002F080807C7C7C7C7C7C447C7C7C0700B7
:102090000868724D6C4F4A68714B49F8347081B2D0
:1020A000704E6A6040F2816400222860A1424FF0C5
:1020B0000100C9F8102001931A60C9F81820307087
:1020C00000F2F380B1F5D06F80F03383B1F5817FFA
:1020D00000F0CE8200F24C81802900F02482822917
:1020E00040F08D82A98801F07F01052900F28782E6
:1020F0005D4F5E4C89000F44227062703A789707FA
:1021000040F132832070022011E2554B01931A688E
:102110004AB3574B5749534E18880C7837784028A4
:10212000054684F0010E28BF402544F00204002F2C
:1021300081F800E0A0EB050009EBC40E0CBF88217C
:10214000C82180B287F0010741EA0541CEF804209A
:10215000188037702A4449F8341010B9402D18BF40
:102160000022019B1A603D4B1A88B2F5A06F04D182
:1021700000219A785970404B1A70404A012313701D
:102180003EE7364A158842F22100854200F05A8126
:102190002D4A49F83420F0E72B4A2C4B19F0080F50
:1021A00018BF134647F838302AE700F093FB344A4B
:1021B000344952F82630002B00F0348158688C5D89
:1021C00042F8260003F10802C9F80420032C05D8C0
:1021D000DFE804F0120F150204228A551A8819F05C
:1021E000080F0CBF8823C82343EA024347F838305E
:1021F00006E702228A55F1E703228A55EEE7052217
:102200008A55EBE7E00700F15781210600F1818153
:10221000A20706D51C4A1D4913780220DBB21370B1
:102220000870E30602D5194B10221A7007B0BDE8FA
:10223000F08F00F02DFE04E70080FF1F9C93FF1F2E
:102240004493FF1FD094FF1FC80040008800400047
:102250003094FF1FB193FF1F9C94FF1F1C94FF1F1E
:102260004093FF1FB093FF1FC02007402894FF1F1B
:102270005893FF1F2494FF1F982007409420074085
:10228000F493FF1F3494FF1F8820074080200740ED
:1022900090200740B64A47F838001378013313708E
:1022A000AEE643F82600B34D91E642F22104A14286
:1022B00000F0B48000F2ED80B1F5086F00F05381BA
:1022C000B1F5106F40F09B81AB4AA9781170AB4D0E
:1022D000042402E00134182C0CD059F834301A06CA
:1022E000F8D505EBC40301345868083800F0F2FA59
:1022F000182CF2D1A249A34BA34A0291A3499D4DA8
:10230000A34C0596039504944FF000080E4615461D
:102310001C46206828B1476800F0DCFA3846002FD8
:10232000F9D100232360039B28681A46002342F852
:10233000283028B1476800F0CDFA3846002FF9D18F
:1023400000222A60029A33781146002241F8042BB9
:10235000049A0291023B4FF0000122F81810032B5F
:1023600000F29A81DFE813F0C7019501C7019501DA
:1023700040F20232914240F03781A98801F07F019A
:10238000052900F23C816A88002A40F03881814C9E
:1023900089000C448046217841F002012170002020
:1023A00002908446864604467B490D7845F0020734
:1023B00009EBC703B8F1000F5C600CBF8824C82488
:1023C00044EA0C0385F0010449F8373032700C7090
:1023D0006A4F724BDFF8C0C1002840F01781BEF190
:1023E000400F1BD144F0020409EBC403029FDFF845
:1023F0008CE15F60002A40F01E81020442F08802F6
:1024000086F800800D7007444EF834203B46402883
:1024100004D10020624A019910800B60614A0123B7
:102420001370AAE68B5D032B00F21B8101A252F808
:1024300023F000BF0120000001200000072500005C
:102440000D250000928862B9574ACD1D11F8013B55
:1024500002F8013F8D42F9D1544A1268862A00F0F1
:10246000BF804D494D4E0878327840F0020580F02B
:102470000100087009EBC501002A4FF00000486018
:1024800082F001020CBF8821C82149F83510327052
:102490007EE642F22124A14240F0AD80A9880029C5
:1024A00040F06081424F434A434C3F68AD7817602B
:1024B00080460A46257072E73A49304B3F48364E0F
:1024C000DFF8D0C03E4DDFF810E13E4F02240C7023
:1024D0003D4C18605C6098603C48D8601A619A6115
:1024E0000D2332703A4C8CF800303A4EFF232B709B
:1024F00001209F258EF800303A70337025700870E7
:1025000007B0BDE8F08F00238B5579E501238B558B
:1025100076E52049304B80220D2008701A70A20702
:102520007FF57FAE76E62D4C022022706270EA883D
:10253000824280F0308118490D78402A45F0020728
:10254000964609EBC70028BF4FF0400E04EB0E0380
:1025500044600293CEEB02004FEA0E4C4FF00108AC
:102560000022C8242CE7044A1C4C12782270DEE7B3
:102570002594FF1F4493FF1F3094FF1F0080FF1F0F
:102580000894FF1F9C93FF1FF493FF1F3494FF1FB9
:10259000D094FF1FC02007402494FF1FB093FF1F5B
:1025A0005893FF1F942007400796FF1F0896FF1FB0
:1025B0003C93FF1F1096FF1FA894FF1F8800400048
:1025C00088200740982007405C93FF1FB493FF1FAB
:1025D000842007408C200740802007402894FF1F5C
:1025E000754A0F2111703CE7B1F5A06F07D10022A9
:1025F0004FF00108D3E642F221329142F7D06F4BFF
:102600000F221A706E4A01231370B6E540287FF638
:10261000E9AE44F0020407EBC401029E4E60AAB189
:1026200083F80080674A8CF80050334640384033C6
:1026300047F83420EEE6029B86F80080020442F060
:10264000C8020D7003444EF83420E0E683F80080A1
:10265000029B5D4A8CF800504038403347F83420E4
:10266000D8E619F0080F0CBF022303238B55C7E4EB
:10267000A98801F07F010529C1D86A88002ABED146
:102680004E4C89000C448046217821F002012170D3
:1026900085E64FF00103337008F10108B8F1050F2A
:1026A00004F1040405F1040506F101067FF431AEDE
:1026B000464B059E464D474F002119704FF00108CB
:1026C00017F8013B05F8043B1B0718D44FEA8804B0
:1026D00044F0020244F00304002349F8323049F880
:1026E00034303D4B9D4208F10108E9D196F8008055
:1026F00088F0010253E64FF000033370CCE700F09E
:10270000C9F800283CD009EB48134FEA8804083088
:1027100058602D4B49F8343000F0BCF830B344F029
:10272000010309EBC30208305060264A49F8332000
:10273000CEE72A4A5468002C3FF461AF6888AF881E
:1027400004E00C325468002C3FF459AF13888342E4
:10275000F7D15388BB42F4D1000A03280CBF20787C
:102760001089E4E680461AE60220E0E6174B44F0C2
:1027700001021B7849F83200144A01331370A7E7AD
:10278000124B124A1B784FEA8804013349F834008F
:102790001370C1E700BE4028864628BF4FF0400EA8
:1027A00004EB0E03CEEB00004FEA0E4C0293002226
:1027B0004FF00108F8E500BFB193FF1FC0200740AC
:1027C00094200740C8004000880040002594FF1F67
:1027D000C420074060350000D8200740683500005D
:1027E0002DE9F04100F0B8FC00231F491A4601EB27
:1027F000C30041F833200133182B42604FF000042E
:102800001948F4D1194A1A4F13681A491A4D1B4E28
:10281000DFF874C0DFF874E0DFF8748043F48023DD
:102820001360C0F307233B70C0F307430B70000E27
:10283000FF2302F528322870D4328CF80030104D76
:102840008EF800300F483370012388F8003070266E
:1028500081F850404FF40074102107F8183C2E7096
:1028600004601170BDE8F0810080FF1F34800440D7
:102870009C200740B0200740B420074010200740AC
:1028800049E400E008E100E080200740882007409C
:102890009420074072B60D480268B2FA82F31D2BED
:1028A00010DC4FF00041D94022EA0102026062B61A
:1028B000074803EBC303DB00C2180021C1501046D8
:1028C0005160704762B60020704700BF688CFF1FE0
:1028D000BC83FF1F0D4B0E4AC31AA2FB03231B0927
:1028E0001D2B0CD80B4A127852B972B60A484FF019
:1028F0000041026821FA03F31A43026062B670478E
:10290000064A1278002AF0D0FFF7ACBABC83FF1F4A
:10291000398EE3382594FF1F688CFF1F3094FF1F0A
:1029200038B50E4B0E4C1B68218805468BB1B1F5AE
:10293000917F05D20B4A4B1C55549BB2238038BD66
:102940000022084898470021064A55540123238055
:1029500038BDB1F5917FEDD338BD00BF6094FF1F46
:10296000DE94FF1FE494FF1F2DE9F843214E224F10
:102970003168012380463B70B1B1204D4B8801EB9B
:102980008302013300240F2BC2F808802C7004D876
:102990004B8000233B70BDE8F88340230B8004206C
:1029A000FFF7A2FA3460F4E7DFF8549099F80030AA
:1029B000002BF0D0114D45F6215408E0013C12D017
:1029C0002B7883B900F052FB99F800307BB10420DA
:1029D000FFF732FA0528F1D8FFF75CFF01463060B7
:1029E0000028EBD0CAE701232B70BDE8F883BDE8CF
:1029F000F88300BF7C94FF1F5094FF1F8094FF1F3B
:102A00003094FF1F70B50A4C257845B9094E3168DE
:102A10000123237009B14B8813B90023237070BDC3
:102A20009B000B800420FFF75FFA3560F5E700BFDD
:102A30005094FF1F7C94FF1F2DE9F041AD4E336889
:102A40000746002B00F092801D885A88910803EBFE
:102A500081010432AA428C6842D25A8004F00F06E7
:102A60004FEA1428A449A6F1080208F00F00C4F3A5
:102A70000313062A00F101050B701AD9B31E012BAE
:102A80005FFA88F04ED9052E48D0042E00F0A481BC
:102A9000731F022B7FD90F2E0ED1F72842D8F028B2
:102AA00002D0964B1B883BB1FFF73AFF0020BDE8F0
:102AB000F08127B1BD4202D00020BDE8F081082E90
:102AC000C4F3033300F08780092E11D00A2E40F0A2
:102AD00094800A2BF0D18A4B8A4A1B68A02181E09E
:102AE0001846FFF7F7FE0520FFF788F93060B5E7D5
:102AF000092BE1D1270E00F07B81834B814A1B68B3
:102B00009021C4F307461170EDB2FCB2002B00F027
:102B10009D80224631462846984797E0F02843D9C1
:102B2000F72841D0F1380E28C6D801A353F820F079
:102B3000E72C0000CB2C0000B92C0000B92A0000C3
:102B4000B92A0000AB2C0000B92A00008B2D000030
:102B5000B92A0000552D00006F2D0000932C0000B5
:102B6000B92A00007B2C00005F2C0000674B1B780B
:102B7000002BA1D00520FFF741F903463060002863
:102B80009AD00588002D7FF460AFFFF7A3FE356073
:102B90002846BDE8F081FFF7C3FEC4F30740FFF706
:102BA000BFFE072E02D1200EFFF7BAFE534B584A44
:102BB000198858481468584D524A017000270E0A67
:102BC000F0201F802E7010700CB301225348A047D4
:102BD0000120BDE8F081082B7FF46EAF504B494ACD
:102BE0001B688021C4F307461170EDB2240E6BB34D
:102BF000284622463146984728E00B2E11D10B2B50
:102C00007FF45AAF474B3F4A1B68B021EAE7464B77
:102C10001B68002B00F0FB80404898470120BDE86E
:102C2000F0810C2E40F000810C2B7FF445AF3F4B20
:102C3000344A1B68C0211170EDB2C4F30746002B63
:102C400000F0C88028463146240E98473849314A5A
:102C5000314B0D7016701C700120BDE8F081354BB2
:102C60001B68002B00F0D6809847C4F30746254B1D
:102C7000EDB2240E83F80080E8E72F4B1B68002B91
:102C8000F2D12E4B1B68A3B1FE209847C4F3074630
:102C9000EDE72B4B1B68002BE6D1284B1B6843B19B
:102CA000FC209847C4F30746E1E7264B1B68002B3E
:102CB000DAD1C4F30746DAE7234B1B68C4F30746AF
:102CC000002BD4D030469847D1E7204B1A68002A11
:102CD000EFD0260C630C06F07F0003F47E531843FC
:102CE000F6B29047C3E71A4B1B68C4F30746002BA4
:102CF000E8D1BCE78894FF1FE294FF1FDE94FF1F1A
:102D00006494FF1FDC94FF1F9894FF1F3094FF1FF3
:102D10006094FF1FE094FF1FE194FF1FE494FF1FE6
:102D20009094FF1F9494FF1F7894FF1F5494FF1FEB
:102D3000E394FF1F4094FF1F4494FF1F4894FF1F1C
:102D40008494FF1F7494FF1F8C94FF1F5C94FF1FDB
:102D50007094FF1F3F4B1B68002B85D13E4B1B68B7
:102D6000002BA6D0FA209847C4F307467FE73B4BD9
:102D70001B68002B7FF478AF374B1B68002B98D073
:102D8000FB209847C4F3074671E7354B1B68002BBF
:102D90007FF46AAF304B1B68002B8AD0F82098472D
:102DA000C4F3074663E70E2B7FF486AE2D4A2E4B05
:102DB0001268E0211970002A47D0260C610C06F039
:102DC0007F0301F47E511943EDB2A1F5005128466D
:102DD0009047F6B2240E39E7FFF7A2FDC4F307408F
:102DE000FFF79EFD200EFFF79BFD0020BDE8F08160
:102DF0001E4B1D4A1B6880211170EDB2C4F30746BB
:102E000083B1314628463A4698473C461EE70120A2
:102E1000BDE8F081104B1B68002B3FF44AAFFF2048
:102E2000984746E71C4611E70D2EBCD10D2B7FF4C9
:102E300043AE0F4B0C4A1B68D0211170EDB2C4F3A6
:102E40000746002B7FF4FEAEC4E7C4F30746EDB29D
:102E5000240EFBE66C94FF1F4894FF1F4C94FF1F49
:102E60003C94FF1F5894FF1FDC94FF1F9094FF1F9A
:102E70006894FF1F044B054A1B6850881BB11A88D1
:102E80005B88D31A18447047A494FF1FD094FF1F87
:102E900038B50E4B1B7873B90D4C216861B103F046
:102EA000FF054B880B800320FFF71EF8256038BD17
:102EB000084B01221A7038BDFFF7ECFC0028F7D050
:102EC0000146BDE838400320FFF70EB89D94FF1F70
:102ED000A094FF1F9C94FF1F70B5EFF3108272B691
:102EE0000C4C206880B10C4E00254369236073B1FF
:102EF0009D6102B962B6457783689847EFF3108207
:102F000072B620680028F0D102B962B670BD336095
:102F1000EFE700BFAC94FF1FB094FF1FFFF7DCBFCB
:102F2000024A136801331360704700BF3C93FF1FD0
:102F3000704700BF0368F0B4FBB1002501249D6019
:102F4000DC601B4C1A601C44241104F144056A1116
:102F5000032692009E60174F0679174B47F82410FE
:102F600002F1604202F5614205F01F05012000FAFE
:102F700005F5E6541560F0BC7047104C236843F427
:102F80000003236000BF0E4B0E4DA4F58734A4F55B
:102F90009E7401261E60234604609C68002CD0D0DD
:102FA0001033AB420360F8D1002303601846E2E718
:102FB000008FFCBF6C8CFF1F44E400E03C800440A9
:102FC00000700340407103400168A9B10B4BF0B49D
:102FD0000B441B110A4E0B4F0B4D46F8237003F1A7
:102FE000440202F01F0401235211A340002445F8BB
:102FF00022308C600460F0BC704700BF008FFCBFC3
:103000006C8CFF1F312F000080E100E0024A034B6F
:10301000012111601B6818470C7103406C8CFF1F65
:10302000024A034B012111605B6818471C71034081
:103030006C8CFF1F024A034B012111609B681847EB
:103040002C7103406C8CFF1F024A034B012111605D
:10305000DB6818473C7103406C8CFF1F08B5FDF717
:1030600063FAFDF73FFD00F001F8FAE72DE9F843B8
:10307000314E337893B1314F3A787AB90122D9077A
:103080003A7036D49A0719D400225B073A7005D5F6
:103090002B4B1A6812B1EFF305820AB1BDE8F88331
:1030A000EFF3108172B6186818B1264C2278002A06
:1030B0002ED00029F2D162B6BDE8F883DFF8908007
:1030C00098F80020002ADFD0DFF88890002405E07F
:1030D000013498F80030E4B2A34212D959F82450D0
:1030E0002B6828461B6998470028F1D02B69984720
:1030F000EEE7FFF7BFFEC8B9134B1B781BB9337857
:10310000C0E73378C0E7337803F0FE033370B9E7E4
:1031100045691D60012323705DB1AA6101B962B6E2
:1031200000254577836898472570B7E700F056F883
:10313000E2E7064B1D60F1E77C8CFF1FBD94FF1F8B
:10314000B894FF1FBC94FF1F568DFF1FB494FF1F40
:10315000CC94FF1FC094FF1F70B584B072B6194B9A
:10316000194D1A48702241260F2480211A702E70A2
:103170001A460470197013781B06FCD5144B186896
:1031800062B6144B144C984298BF00EB800001A922
:1031900098BF40000A2200F023F801A9204600232E
:1031A00011F8012B01333AB10A2B20F8022FF7D185
:1031B0001623237004B070BD5B00DBB2237004B033
:1031C00070BD00BF00000240070002400600024040
:1031D000080002407F969800408DFF1F704700BF97
:1031E000F0B44D1E2E46002400E00134B0FBF2F393
:1031F00002FB1300092800F130078ABF3730F8B20C
:10320000C0B206F8010F1846002BEED10A19537010
:103210004CB1107815F8016F28700133E01A834221
:1032200002F80169F5DB0846F0BC70470B46014621
:10323000184600F001B800BF13460A4601460220B6
:1032400000F028B870B50F4E0F4D761BB61018BFA2
:10325000002405D0013455F8043B9847A642F9D123
:103260000A4E0B4D761B00F0B1F9B61018BF0024C2
:1032700006D0013455F8043B9847A642F9D170BDF9
:1032800070BD00BFD8350000D8350000E83500001B
:10329000D83500002DE9F047254C2568D5F8484180
:1032A0000646884692469946C4B360681F2817DCD4
:1032B000431C76B104EB80050122C5F888A0D4F840
:1032C000881182401143022EC4F88811C5F8089174
:1032D0001ED00230636044F820800020BDE8F087F3
:1032E000144B03B34FF4C870AFF300800446D0B161
:1032F000D5F84831002780E88800C5F848413846AD
:103300000123C4F88871C4F88C71002EE1D0D1E794
:10331000D4F88C110A43C4F88C21DAE705F5A674B9
:10332000C5F84841C1E74FF0FF30BDE8F08700BF66
:10333000C835000000000000024B13B1024800F045
:1033400005B8704700000000593300000023014613
:103350001A461846FFF79EBF38B5074D074C2C1B81
:10336000A41005D0013C55F8043D9847002CF9D134
:10337000BDE8384000F038B900000000000000004F
:103380007E306D79335B5F707F7B771F0D3D4F47DC
:10339000000000000000000000000000000000002D
:1033A000000000000000000000000000800180001C
:1033B0007E306D79335B5F707F7B00000000000022
:1033C00000771F0D3D4F4700370000000E00000042
:1033D000670000000000000000000000000000087E
:1033E00000771F0D3D4F4700370000000E00151DF0
:1033F0006700000000000000000000000000000066
:10340000050E08090D0C06070F0400130393050EA3
:1034100008090D0C06070F04FFFFC585848687C4C5
:10342000FFFF001303931A9217FFFFFF4008FE43AC
:1034300040A004404408FE4344A004400018FE435A
:1034400000C004403000FE43309004403400FE438E
:10345000349004401C18FE431CC004401018FE4366
:1034600010C004400818FE4308C004400C18FE4376
:103470000CC004400C10FE430CB004401010FE437E
:1034800010B004401810FE4318B004401C10FE4356
:103490001CB004401410FE4314B004400418FE4352
:1034A00004C004400010FE4300B004400008FE4386
:1034B00000A004400408FE4304A004400C08FE439E
:1034C0000CA004400808FE4308A004401418FE4362
:1034D00014C004401818FE4318C004400410FE43F2
:1034E00004B004400810FE4308B004401400FE433A
:1034F000149004404C08FE434CA004400420FE43BA
:1035000004D004402410FE4324B004402010FE43A5
:1035100020B004402810FE4328B004402C10FE4385
:103520002CB004400020FE4300D004404808FE4375
:1035300048A004401000FE4310900440090AFFFF19
:10354000FFFFFFFFFFFFFFFFFFFFFF0D0006080764
:10355000FFFF0E0FFF0CFFFFFFFFFFFF0B05FFFF3D
:103560001519151519FFFFFF00010000808CFF1FC2
:103570001200000000020000948CFF1F9500000064
:10358000050309042C8DFF1F00000000000300004C
:103590003C8DFF1F0000000001030904348CFF1F55
:1035A0000000000002030904448CFF1F000000001B
:1035B00003030904408DFF1F00000000000000000D
:1035C0000000000000000000588DFF1FF8B500BF8C
:1035D000F8BC08BC9E467047393300003504000033
:0835E0000D0F0000F1110000C5
:0435E800F8B500BF73
:0835EC0040FCFF7F010000001C
:1035F400000000001203550054005A0042006F00FE
:103604007800000012034600610064006500720047
:10361400440075006F000100C409000001010101AC
:10362400030010000A040800FFFFFFFF312F000011
:10363400312F0000312F0000312F00000100000065
:103644001201100100000040C01689047502010235
:103654000301000009029500030100C032080B00B9
:103664000202020100090400000102020100052413
:1036740000100105240101010424020605240600AA
:10368400010705810310004009040100020A00003B
:1036940000070502024000000705830240000009FC
:1036A40004020002010300000724010001250006B2
:1036B4002402010105062402020205092403010370
:1036C400010201050924030204010101050905059C
:1036D40002400000000005250101010905840240A3
:1036E4000000000005250101030000000E03500046
:1036F4006F0072007400200031000000040309040C
:103704000C030000000000000000000000000000A6
:103714000000000000000100000000004490FF1FB2
:10372400AC90FF1F1491FF1F000000000000000078
:103734000000000000000000000000000000000085
:103744000000000000000000000000000000000075
:103754000000000000000000000000000000000065
:103764000000000000000000000000000000000055
:103774000000000000000000000000000000000045
:103784000000000000000000000000000000000035
:103794000000000000000000000000000000000025
:1037A4000000000000000000000000000000000015
:1037B4000000000000000000000000000000000005
:1037C40001000000000000000E33CDAB34126DE6A2
:1037D400ECDE05000B00000000000000000000000B
:1037E40000000000000000000000000000000000D5
:1037F40000000000000000000000000000000000C5
:1038040000000000000000000000000000000000B4
:1038140000000000000000000000000000000000A4
:00000001FF
